{
  "transactions": [
    {
      "hash": "0x7f6ceb3ec405a837ddea23bd59c122d85fcaf32ef6dc99003ed4a756ad3c6568",
      "transactionType": "CALL",
      "contractName": null,
      "contractAddress": "0x2e57935d31ef7f161e7bc69fca873e04097ff3af",
      "function": "registerSpoke(uint16,bytes32)",
      "arguments": [
        "1",
        "0x05317ba34782df7acc92a59ac742832576b42ba18a8d07b5f31de087a3dd800a"
      ],
      "transaction": {
        "from": "0x4135270d8bcf6b654e1169efefc317afa8778a83",
        "to": "0x2e57935d31ef7f161e7bc69fca873e04097ff3af",
        "gas": "0x213f2",
        "value": "0x0",
        "input": "0xeb1d6b96000000000000000000000000000000000000000000000000000000000000000105317ba34782df7acc92a59ac742832576b42ba18a8d07b5f31de087a3dd800a",
        "nonce": "0x13",
        "chainId": "0x1"
      },
      "additionalContracts": [],
      "isFixedGasLimit": false
    },
    {
      "hash": "0x42ada884d7c70b9fa04f8eebba822c0d04d4cf9ff46f12a1f27c607dafbc2617",
      "transactionType": "CALL",
      "contractName": null,
      "contractAddress": "0x2e57935d31ef7f161e7bc69fca873e04097ff3af",
      "function": "registerSpoke(uint16,bytes32)",
      "arguments": [
        "24",
        "0x0000000000000000000000000a447c68166b486e84a87b869018c040063a1f16"
      ],
      "transaction": {
        "from": "0x4135270d8bcf6b654e1169efefc317afa8778a83",
        "to": "0x2e57935d31ef7f161e7bc69fca873e04097ff3af",
        "gas": "0x21320",
        "value": "0x0",
        "input": "0xeb1d6b9600000000000000000000000000000000000000000000000000000000000000180000000000000000000000000a447c68166b486e84a87b869018c040063a1f16",
        "nonce": "0x14",
        "chainId": "0x1"
      },
      "additionalContracts": [],
      "isFixedGasLimit": false
    },
    {
      "hash": "0xe95cbe382ee01441a4155fcfced807dc613471c9a8f9e1e3cf6b7d5ed85e3a50",
      "transactionType": "CALL",
      "contractName": null,
      "contractAddress": "0x2e57935d31ef7f161e7bc69fca873e04097ff3af",
      "function": "registerSpoke(uint16,bytes32)",
      "arguments": [
        "23",
        "0x000000000000000000000000e495e8632d2c335969f7ce1ee1c6f4618ce0d780"
      ],
      "transaction": {
        "from": "0x4135270d8bcf6b654e1169efefc317afa8778a83",
        "to": "0x2e57935d31ef7f161e7bc69fca873e04097ff3af",
        "gas": "0x21320",
        "value": "0x0",
        "input": "0xeb1d6b960000000000000000000000000000000000000000000000000000000000000017000000000000000000000000e495e8632d2c335969f7ce1ee1c6f4618ce0d780",
        "nonce": "0x15",
        "chainId": "0x1"
      },
      "additionalContracts": [],
      "isFixedGasLimit": false
    },
    {
      "hash": "0x9e4e8de4fbd6ba1c5e99d39e89d102f2620364451d9e37f9403d83935567bbd2",
      "transactionType": "CALL",
      "contractName": null,
      "contractAddress": "0x2e57935d31ef7f161e7bc69fca873e04097ff3af",
      "function": "registerSpoke(uint16,bytes32)",
      "arguments": [
        "30",
        "0x0000000000000000000000004c31eeee22c08474a45e15bb23c46a6f2b446fb4"
      ],
      "transaction": {
        "from": "0x4135270d8bcf6b654e1169efefc317afa8778a83",
        "to": "0x2e57935d31ef7f161e7bc69fca873e04097ff3af",
        "gas": "0x21320",
        "value": "0x0",
        "input": "0xeb1d6b96000000000000000000000000000000000000000000000000000000000000001e0000000000000000000000004c31eeee22c08474a45e15bb23c46a6f2b446fb4",
        "nonce": "0x16",
        "chainId": "0x1"
      },
      "additionalContracts": [],
      "isFixedGasLimit": false
    }
  ],
  "receipts": [
    {
      "status": "0x1",
      "cumulativeGasUsed": "0xd9b013",
      "logs": [
        {
          "address": "0x2e57935d31ef7f161e7bc69fca873e04097ff3af",
          "topics": [
            "0xcb4fd51bf3a0766e39ffe0f81893291c14a84be4b8da0d352df1fee57f19609f",
            "0x0000000000000000000000000000000000000000000000000000000000000001"
          ],
          "data": "0x000000000000000000000000000000000000000000000000000000000000000005317ba34782df7acc92a59ac742832576b42ba18a8d07b5f31de087a3dd800a",
          "blockHash": "0x51053445861cc3478f67662718db3647f47f267856340c9f1c119564fa8ad266",
          "blockNumber": "0x153e6d6",
          "blockTimestamp": "0x67fe93b3",
          "transactionHash": "0x7f6ceb3ec405a837ddea23bd59c122d85fcaf32ef6dc99003ed4a756ad3c6568",
          "transactionIndex": "0x9f",
          "logIndex": "0x183",
          "removed": false
        }
      ],
      "logsBloom": "0x00000000000000000000000000000000000000000000000000000000000000000000000000000000000000000000000000000000000000000000000000040000000000000000800000000000100000000000000000040000000000000000000000000000000000000000000000000000000000008000000000000000000000000000000000000000000000000000000000000000000000000000000000000000000000000000000000000000000000000000000000000000000000000000000000000080000000000000000000000000000000000000000080000000000040000000000000000000000000000000000000008000000000000000000000000000",
      "type": "0x2",
      "transactionHash": "0x7f6ceb3ec405a837ddea23bd59c122d85fcaf32ef6dc99003ed4a756ad3c6568",
      "transactionIndex": "0x9f",
      "blockHash": "0x51053445861cc3478f67662718db3647f47f267856340c9f1c119564fa8ad266",
      "blockNumber": "0x153e6d6",
      "gasUsed": "0x16bba",
      "effectiveGasPrice": "0x3820095e",
      "from": "0x4135270d8bcf6b654e1169efefc317afa8778a83",
      "to": "0x2e57935d31ef7f161e7bc69fca873e04097ff3af",
      "contractAddress": null
    },
    {
      "status": "0x1",
      "cumulativeGasUsed": "0xdb1b3d",
      "logs": [
        {
          "address": "0x2e57935d31ef7f161e7bc69fca873e04097ff3af",
          "topics": [
            "0xcb4fd51bf3a0766e39ffe0f81893291c14a84be4b8da0d352df1fee57f19609f",
            "0x0000000000000000000000000000000000000000000000000000000000000018"
          ],
          "data": "0x00000000000000000000000000000000000000000000000000000000000000000000000000000000000000000a447c68166b486e84a87b869018c040063a1f16",
          "blockHash": "0x51053445861cc3478f67662718db3647f47f267856340c9f1c119564fa8ad266",
          "blockNumber": "0x153e6d6",
          "blockTimestamp": "0x67fe93b3",
          "transactionHash": "0x42ada884d7c70b9fa04f8eebba822c0d04d4cf9ff46f12a1f27c607dafbc2617",
          "transactionIndex": "0xa0",
          "logIndex": "0x184",
          "removed": false
        }
      ],
      "logsBloom": "0x000000000000000000000000000000000000000000000000000000000000000000000000000000000000000000000000000000000000000000000000000000000000000000008000000000001000000000400000000000000000000000000000000000000000000000000000000000000000000080000000000000000000000000000000000000000000000000000000000000000000000000000000000000000000000000000000000000000000000000000000000000000000000000000000001000800000000000000000000000000000000000000000a0000000000000000000000000000000000000000000000000008000000000000000000000000000",
      "type": "0x2",
      "transactionHash": "0x42ada884d7c70b9fa04f8eebba822c0d04d4cf9ff46f12a1f27c607dafbc2617",
      "transactionIndex": "0xa0",
      "blockHash": "0x51053445861cc3478f67662718db3647f47f267856340c9f1c119564fa8ad266",
      "blockNumber": "0x153e6d6",
      "gasUsed": "0x16b2a",
      "effectiveGasPrice": "0x3820095e",
      "from": "0x4135270d8bcf6b654e1169efefc317afa8778a83",
      "to": "0x2e57935d31ef7f161e7bc69fca873e04097ff3af",
      "contractAddress": null
    },
    {
      "status": "0x1",
      "cumulativeGasUsed": "0xdc8667",
      "logs": [
        {
          "address": "0x2e57935d31ef7f161e7bc69fca873e04097ff3af",
          "topics": [
            "0xcb4fd51bf3a0766e39ffe0f81893291c14a84be4b8da0d352df1fee57f19609f",
            "0x0000000000000000000000000000000000000000000000000000000000000017"
          ],
          "data": "0x0000000000000000000000000000000000000000000000000000000000000000000000000000000000000000e495e8632d2c335969f7ce1ee1c6f4618ce0d780",
          "blockHash": "0x51053445861cc3478f67662718db3647f47f267856340c9f1c119564fa8ad266",
          "blockNumber": "0x153e6d6",
          "blockTimestamp": "0x67fe93b3",
          "transactionHash": "0xe95cbe382ee01441a4155fcfced807dc613471c9a8f9e1e3cf6b7d5ed85e3a50",
          "transactionIndex": "0xa1",
          "logIndex": "0x185",
          "removed": false
        }
      ],
      "logsBloom": "0x00000000000000000000000000000000000000000000000000000000000000000000000000000000000000000000000000001000000000000000001000000000000000000000800000000000100000000000000000000000000000000000000000000000000000000000000000000000000000008000000000000000000000000000000000000000000000000000000000000000000000000000000000000000000000000000000000000000000000000000000000000000000000000000000000000080000000000000000000000000000000000000000080000000000000000000000000000000000000000000000000008000000000000000000000080000",
      "type": "0x2",
      "transactionHash": "0xe95cbe382ee01441a4155fcfced807dc613471c9a8f9e1e3cf6b7d5ed85e3a50",
      "transactionIndex": "0xa1",
      "blockHash": "0x51053445861cc3478f67662718db3647f47f267856340c9f1c119564fa8ad266",
      "blockNumber": "0x153e6d6",
      "gasUsed": "0x16b2a",
      "effectiveGasPrice": "0x3820095e",
      "from": "0x4135270d8bcf6b654e1169efefc317afa8778a83",
      "to": "0x2e57935d31ef7f161e7bc69fca873e04097ff3af",
      "contractAddress": null
    },
    {
      "status": "0x1",
      "cumulativeGasUsed": "0xddf191",
      "logs": [
        {
          "address": "0x2e57935d31ef7f161e7bc69fca873e04097ff3af",
          "topics": [
            "0xcb4fd51bf3a0766e39ffe0f81893291c14a84be4b8da0d352df1fee57f19609f",
            "0x000000000000000000000000000000000000000000000000000000000000001e"
          ],
          "data": "0x00000000000000000000000000000000000000000000000000000000000000000000000000000000000000004c31eeee22c08474a45e15bb23c46a6f2b446fb4",
          "blockHash": "0x51053445861cc3478f67662718db3647f47f267856340c9f1c119564fa8ad266",
          "blockNumber": "0x153e6d6",
          "blockTimestamp": "0x67fe93b3",
          "transactionHash": "0x9e4e8de4fbd6ba1c5e99d39e89d102f2620364451d9e37f9403d83935567bbd2",
          "transactionIndex": "0xa2",
          "logIndex": "0x186",
          "removed": false
        }
      ],
      "logsBloom": "0x00000000000000000000000000000000000000000000000000000000000000000000000000000000000000000400000000000000000000000000000000000000000000000000808000000000100000000000000000000000000000000000000000000000000000000000000000000000000000008000000000000000000000000000000000000000000000000000000000000000000000000000000000000000000000000000000000000000000000000000000000000000000000000000000000000080000000000000000000000000000000000000000080000000000000000000000000000000080000000000000000008000000000000000000000000000",
      "type": "0x2",
      "transactionHash": "0x9e4e8de4fbd6ba1c5e99d39e89d102f2620364451d9e37f9403d83935567bbd2",
      "transactionIndex": "0xa2",
      "blockHash": "0x51053445861cc3478f67662718db3647f47f267856340c9f1c119564fa8ad266",
      "blockNumber": "0x153e6d6",
      "gasUsed": "0x16b2a",
      "effectiveGasPrice": "0x3820095e",
      "from": "0x4135270d8bcf6b654e1169efefc317afa8778a83",
      "to": "0x2e57935d31ef7f161e7bc69fca873e04097ff3af",
      "contractAddress": null
    }
  ],
  "libraries": [],
  "pending": [],
  "returns": {},
  "timestamp": 1744737206,
  "chain": 1,
  "commit": "289df8d2"
}